:10000000BC0A040000000000000000000000000026
:1000100000000000000000000000000000000000E0
:1000200000000000000000000000000000000000D0
:1000300000000000000000000000000000000000C0
:1000400000000000000000000000000000000000B0
:1000500000000000760A0000000000000000000020
:100060000000000000000000000000000000000090
:100070000000000000000000000000000000000080
:100080000000000000000000000000000000000070
:100090000000000000000000000000000000000060
:101578000F8A2000F07F240020A0B7000020200060
:1015880032A0B700400020004420B700F40D02004C
:1015980000000000FE0D0200000000008A1F780015
:1015A8008B1F78008C1F78006108800000002800DD
:1015B800008060000CA1B7006A26EF007E26EF00CD
:1015C8001040200076A6B7006226EF006826EF00DC
:1015D8007C26EF006626EF007A26EF0097FE0700CC
:1015E8003CC1B3001BC0B3003AC0B300B6FF07004C
:1015F8003CC0B3001620EF002AC0B300B2FF0700BA
:101608007DFB07009960A8008960A9000A5822009C
:101618000B00200092FE070038002000578D2000A4
:101628000E20ED00FEFF3A001020ED00FCFF3A000E
:101638000A8920000BFF07001BFF07007AC6A800D5
:101648007AE6A8007B06A80038002000578D200005
:101658000E20ED00FEFF3A001020ED00FCFF3A00DE
:10166800704480006100E100EC003A000020EF00C7
:10167800704488007B8220003A8920004BFE0700D6
:101688006000E1000E003A00218120000020EF00F8
:1016980080487800318120000020EF0080487800E1
:1016A800418120000020EF00804878001C002000C5
:1016B8002B8120002A00200094FB0700D30037006C
:1016C8007B8220002A82200038FE07006000E100AB
:1016D8000E003A00218120000020EF0080487800A9
:1016E800318120000020EF008048780041812000EF
:1016F8000020EF0080487800FCFF2F002B8120009D
:101708002A00200081FB0700C00037007B822000F0
:10171800DA81200025FE07006000E1000E003A0093
:101728002181200010C0B30080487800318120005A
:101738000020EF00804878004181200010C0B300ED
:10174800804878001C0020002B8120002A002000FF
:101758006EFB0700AD0037007B8220008A812000E5
:1017680012FE07006000E1000E003A00218120000F
:1017780010C0B30080487800318120000020EF00BD
:10178800804878004181200010C0B300804878006C
:10179800FCFF2F002B8120002A0020005BFB0700A4
:1017A8009A0037007082200090407800F0C4B3009F
:1017B800000CE10018003A00808220009040780078
:1017C800C0C4B300000CE10013003A009A82200064
:1017D800C3FD0700B0408800228120000220EF00EE
:1017E800014978003281200011C0B3000149780016
:1017F800428120000220EF00014978001C002000EF
:101808002B8120000005780040FB07001A03200008
:10181800F8FB07007D0037007082200090407800B8
:10182800F0C4B300000CE10018003A0080822000E8
:101838009040780040C4B300000CE10013003A0067
:101848009A822000A6FD0700B0408800228120006F
:101858000220EF00014978003281200011C0B30056
:1018680001497800428120000220EF0001497800F8
:10187800FCFF2F002B8120000005780023FB0700C8
:101888001A032000DBFB070060003700708220008D
:1018980090407800B0C4B300000CE10016003A0094
:1018A800808220009040780010C4B300000CE10052
:1018B80011003A009A82200089FD0700B040880094
:1018C8002281200011C0B300014978003281200034
:1018D8000220EF0001497800428120000220EF0039
:1018E80001497800FCFF2F002B81200000057800BB
:1018F80006FB070045003700708220009040780002
:10190800E0C4B300000CE10010003A00218120007F
:1019180010C0B300804878003181200010C0B300A7
:1019280080487800418120000020EF00804878003E
:101938001C0020002B8120008A1C2100F3FA0700DC
:101948001A032000ABFB070030003700708220002C
:101958009040780090C4B300000CE10012003A00F7
:10196800218120000020EF0080487800318120008C
:101978000020EF00804878004181200010C0B300AB
:10198800804878001C0020002B8120000A7D200060
:10199800DEFA0700FCFF2F002B8120000A7D2000C3
:1019A800DAFA0700190037007082200090407800AA
:1019B80030C4B300000CE10002003A003AFE070010
:1019C80012003700708220009040780020C4B300D5
:1019D800000CE1000D003A002181200010C0B30086
:1019E80080487800318120000020EF00804878008E
:1019F800418120000020EF0080487800FCFF2F0084
:101A08002B812000DA112000C0FA07004C062000C4
:101A18001620EF007A8220007BFD070010FF3700B8
:101A28004F067800CF0578004F057800FFFF370094
:101044000000FA0001102000620420007305200053
:10105400824878008348780000C1A9000080FA0023
:041064000000060082
:1014D0000000FA008D1F78001A20EF00CEFC0700F4
:0C14E000CF0678000080FA000000060033
:100818000200FA00F00F200000079800605CE10079
:1008280065003A001A00E2000100320003020700E6
:1008380039003700407D20000C4878005B00370005
:10084800507D20000C48780058003700607D20005B
:100858000C48780055003700707D20000C4878005F
:1008680052003700807D20000C4878004F00370088
:10087800907D20000C4878004C003700A07D2000B7
:100888000C48780049003700B07D20000C487800FB
:1008980046003700C07D20000C4878004300370030
:1008A800D07D20000C48780040003700E07D200013
:1008B8000C4878003D003700F07D20000C48780097
:1008C8003A003700007E20000C48780037003700D7
:1008D800107E20000C48780034003700207E20006D
:1008E8000C48780031003700307E20000C48780032
:1008F8002E003700E07E20000C4878002B003700DF
:10090800F07E20000C487800280037000020EF0017
:1009180000079800250037006054E100C5FF320049
:100928006154E100C6FF32006254E100C7FF3200A3
:100938006354E100C8FF32006454E100C9FF32008B
:100948006554E100CAFF32006654E100CBFF320073
:100958006754E100CCFF32006854E100CDFF32005B
:100968006954E100CEFF32006A54E100CFFF320043
:100978006B54E100D0FF32006C54E100D1FF32002B
:100988006D54E100D2FF32006E54E100D3FF320013
:100998006F54E100D4FF32007A54E100D5FF3200F1
:1009A8007B54E100D6FF3200D8FF37001A00E2007E
:1009B8000100320090FE0700615CE100BD003A00D2
:1009C8001A00E200010032009C0107006C003700A9
:1009D800007920000A487800B30037001079200019
:1009E8000A487800B0003700207920000A487800CB
:1009F800AD003700307920000A487800AA00370097
:100A0800407920000A487800A70037005079200074
:100A18000A487800A4003700607920000A48780066
:100A2800A1003700707920000A4878009E0037003E
:100A3800A07920000A4878009B003700B079200090
:100A48000A48780098003700C07920000A487800E2
:100A580095003700D07920000A48780092003700C6
:100A6800E07920000A4878008F003700F0792000EC
:100A78000A4878008C003700007A20000A4878007D
:100A880089003700607A20000A487800860037001D
:100A9800707A20000A48780083003700807A2000A6
:100AA8000A48780080003700907A20000A487800C9
:100AB8007D003700407B20000A4878007A00370024
:100AC800507B20000A48780077003700607B2000C0
:100AD8000A48780074003700707B20000A487800C4
:100AE80071003700807B20000A4878006E003700CC
:100AF800907B20000A4878006B003700A07B20001C
:100B08000A48780068003700C07B20000A4878004F
:100B180065003700D07B20000A4878006200370063
:100B2800E07B20000A4878005F003700F07B200057
:100B38000A4878005C003700207C20000A487800CA
:100B480059003700307C20000A48780056003700EA
:100B5800807C20000A48780053003700907C2000F1
:100B68000A48780050003700A07C20000A48780026
:100B78004D0037000020EF00000798004A003700BA
:100B88006064E10092FF32006164E10093FF32008B
:100B98006264E10094FF32006364E10095FF320073
:100BA8006464E10096FF32006564E10097FF32005B
:100BB8006664E10098FF32006764E10099FF320043
:100BC8006864E1009AFF32006964E1009BFF32002B
:100BD8006A64E1009CFF32006B64E1009DFF320013
:100BE8006C64E1009EFF32006D64E1009FFF3200FB
:100BF8006E64E100A0FF32006F64E100A1FF3200E3
:100C08007064E100A2FF32007164E100A3FF3200CA
:100C18007264E100A4FF32007364E100A5FF3200B2
:100C28007464E100A6FF32007564E100A7FF32009A
:100C38007664E100A8FF32007764E100A9FF320082
:100C48007864E100AAFF32007964E100ABFF32006A
:100C58007A64E100ACFF32007B64E100ADFF320052
:100C68007C64E100AEFF32007D64E100AFFF32003A
:100C78007E64E100B0FF32007F64E100B1FF320022
:100C880000C2B3000064E100B1FF320010C2B3003B
:100C98000064E100B1FF320020C2B3000064E1004B
:100CA800B1FF3200B3FF37001A00E2000100320042
:100CB800D1FD07005D0037001600AE007606A900DA
:100CC8001600AF007606A8007D0037001600AE00BB
:100CD8007626A9001600AF007626A800780037000F
:100CE8001600AE007646A9001600AF007646A800AA
:100CF800730037001600AE007666A9001600AF0034
:100D08007666A8006E0037001600AE007686A90049
:100D18001600AF007686A800690037001600AE00FE
:100D280076A6A9001600AF0076A6A80064003700D2
:100D38001600AE0076C6A9001600AF0076C6A80059
:100D48005F0037001600AE0076E6A9001600AF0077
:100D580076E6A8005A0037001600AE007706A9000C
:100D68001600AF007706A800550037001600AE0041
:100D78007726A9001600AF007726A8005000370094
:100D88001600AE007746A9001600AF007746A80007
:100D98004B0037001600AE007766A9001600AF00BA
:100DA8007766A800460037001600AE007786A900CF
:100DB8001600AF007786A800410037001600AE0085
:100DC80077A6A9001600AF0077A6A8003C00370058
:100DD8001600AE0077C6A9001600AF0077C6A800B7
:100DE800370037001600AE0077E6A9001600AF00FE
:100DF80077E6A800320037001600AE006206A900A8
:100E08001600AF006206A8002D0037001600AE00DD
:100E18006226A9001600AF006226A8002800370045
:100E28000020EF0000079800250037006054E1001B
:100E3800A1FF32006154E100A4FF32006254E100D6
:100E4800A7FF32006354E100AAFF32006454E100B6
:100E5800ADFF32006554E100B0FF32006654E10096
:100E6800B3FF32006754E100B6FF32006854E10076
:100E7800B9FF32006954E100BCFF32006A54E10056
:100E8800BFFF32006B54E100C2FF32006C54E10036
:100E9800C5FF32006D54E100C8FF32006E54E10016
:100EA800CBFF32006F54E100CEFF32007A54E100EC
:100EB800D1FF32007B54E100D4FF3200D8FF370065
:0C0EC8000E0090000080FA000000060000
:100400000000FA00011020006204200073052000A3
:10041000824878008348780000C1A8000080FA0074
:0404200000000600D2
:101068000800FA00E03F2000F0448800C07F20001C
:10107800E0448800F0FF2F00C0448800F0FF2F00F4
:10108800D04488009823EF00000028009AA3B700F6
:101098009863A9008DFF07000001BE00803E200074
:1010A8000100200010FD07000001BE008AFF0700B4
:1010B8004100DE00640040008000780060004700C6
:1010C8000A88BE008100E900030035001018D0002E
:1010D8001090D200FBFF3700829FBE008A9FBE009F
:1010E8000200BE000E0190009E0190000002EB007D
:1010F800CAFC07004F05BE004F01BE00200798003C
:10110800310798008A9FBE000200BE000E019000C1
:101118009E0190000002EB008DFD07004F05BE0008
:101128008001780001027800600047005001D1007A
:10113800C080D300640047003008E1002090E1003F
:101148000700310061804100E0004A008002780019
:101158000103780005017800860178000200370055
:1011680003017800840178000280710033003A009E
:1011780056FF07000001BE00803E2000010020004D
:10118800D9FC07000001BE0053FF07004100DE0044
:1011980000A0EC0080007800600047000A88BE00CC
:1011A8008100E900030035001018D0001090D2002B
:1011B800FBFF3700829FBE000200BE000E019000B8
:1011C8009E0190000002EB0094FC07004F01BE0056
:1011D80020079800310798000200BE000E01900019
:1011E8009E0190000002EB0059FD07008001780085
:1011F80001027800600047005001D100C080D30090
:10120800640047003008E1002090E1000700310049
:1012180061804100E0004A00800278000103780004
:101228000501780086017800020037000301780084
:10123800840178009863A80000003700610051001D
:10124800E0805900001D88009A23A90099E3A800AE
:101258009B43A8009DFC07009CFC07000080FA0047
:04126800000006007C
:0C0ED40000F421000100200000000600D6
:080EE0002000200000000600C4
:1004D40038002000578D20000E20ED00FEFF3A006A
:0C04E4001020ED00FCFF3A0000000600B4
:1004F0000000FA00020AB800500088000200B800AC
:1005000081004200032AB800810042000080FA0006
:0405100000000600E1
:100424000000FA0002000700660204000000000059
:100434000800E20002003A00100007000000060075
:10044400811F78000200E20002003D0060001000FD
:10045400E08018000600E20002003D006001110087
:10046400E0811900050007004F00E00002003B0096
:1004740060001000E0801800000006000200070081
:100484000480BE00000006006022B80006022000BE
:100494000000D0008180D2000482D2008582D20084
:1004A4000000A8000202520083825A0003003B00AD
:1004B4000202420083824A000000A1000603E90010
:1004C400F3FF3A00000006000080FA000000060076
:100758000000FA0002000700FA030400000000008D
:100768000800E20002003A0010000700000006003E
:10077800839F68000200E20002003D006000100054
:10078800E08018000600E20002003D006001110050
:10079800E0811900050007004F00E00002003B005F
:1007A80060001000E0801800000006006022B80019
:1007B800060220000000D0008180D2000482D2000E
:1007C8008582D2000000A8000202520083825A00EB
:1007D80003003B000202420083824A000000A1009D
:1007E8000603E900F3FF3A00000006000080FA0063
:0407F80000000600F7
:10126C000000FA000220EF001A4078006004E10050
:10127C000A0032008A1F78000085FB005CFD070025
:10128C004F05780061C04000804078000080FB0072
:10129C000000450010407800F4FF37000080FA0091
:0412AC000000060038
:1007FC000000FA009B03AF0001003700FDFF37003B
:0C080C00EA1C88000080FA0000000600D2
:1012B0008A1F78008B1F78008C1F78007AC6A800E0
:1012C0007AE6A9007B06A90078A6AF0031003700B6
:1012D00050408000C300DD0020D9280001014000FB
:1012E0000020200032A0B700120078000000AE00FD
:1012F0007BA6A9000000AF007BA6A800E200410089
:101300000020200032A0B700110078000000AE00DD
:101310007B86A9000000AF007B86A800E4004100A6
:101320000020200032A0B700110078000000AE00BD
:101330007B66A9000000AF007B66A800E6004100C4
:101340000020200032A0B700110078000000AE009D
:101350007B46A9000000AF007B46A800A75B2000E9
:101360000E20ED00FEFF3A0000000000000000002B
:1013700011002000A0802000108810005040800044
:101380006000E10002003D00700020005040880035
:10139000CDFF37007BA6A9007B86A9007B66A9004C
:1013A0007B46A9007AC6A9007AE6A9007B06A800B8
:1013B00079E6AF003100370020408000C300DD0037
:1013C00020D92800010140000020200032A0B700F1
:1013D000120078000000AE007BA6A9000000AF005C
:1013E0007BA6A800E20041000020200032A0B70048
:1013F000110078000000AE007B86A9000000AF005D
:101400007B86A800E40041000020200032A0B70045
:10141000110078000000AE007B66A9000000AF005C
:101420007B66A800E60041000020200032A0B70043
:10143000110078000000AE007B46A9000000AF005C
:101440007B46A800A75B20000E20ED00FEFF3A00BF
:10145000000000000000000011002000408020007B
:1014600010881000204080006000E10002003D0074
:101470007000200020408800CDFF37007BA6A90027
:101480007B86A9007B66A9007B46A90021812000FC
:1014900010C0B30080487800318120000020EF00A8
:1014A00080487800418120000020EF0080487800CB
:1014B0001C0020002B8120008ABB200015FC0700A7
:1014C0004F067800CF0578004F0578000000060031
:1005140062824500144078000080FB00C200DD00C8
:10052400E1814500134078000080FB004100DD00BC
:10053400008140009B80FB000080200001084100F6
:10054400144078000000AE007AC6A9000000AF0095
:100554007AC6A800134078000000AE007AE6A9002D
:100564000000AF007AE6A8001B4078000000AE004F
:100574007B06A9000000AF007B06A8006050E100E4
:100584005F00320000408000C100DD0020802000B8
:100594000101400012007800C300DD0020D92800CA
:1005A400810040000020200032A0B7001100780034
:1005B4000000AE007BA6A9000000AF007BA6A80047
:1005C40012007800C300DD0020D92800010040009B
:1005D400E20040000020200032A0B70011007800A3
:1005E4000000AE007B86A9000000AF007B86A80057
:1005F40012007800C300DD0020D92800010040006B
:10060400E40040000020200032A0B7001100780070
:100614000000AE007B66A9000000AF007B66A80066
:1006240012007800C300DD0020D92800010040003A
:10063400E60040000020200032A0B700110078003E
:100644000000AE007B46A9000000AF007B46A80076
:10065400A75B20000E20ED00FEFF3A000000000022
:100664000000000061005500000578000040800093
:10067400C100DD0020802000010040001008460079
:1006840000408000C100DD00208020000100400007
:10069400100078006800E100080035006160E100A6
:1006A40006003A0000408000C100DD0020802000E8
:1006B400810040000020EF008008780000408000A6
:1006C400C100DD00208020000100400010007800FF
:1006D4006000E10009003D00F0FF2F000060E10030
:1006E40006003A0000408000C100DD0020802000A8
:1006F4008100400070002000800878009FFF3700D0
:100704007BA6A9007B86A9007B66A9007B46A9007D
:100714007AC6A8007AE6A8007B06A80000000600B6
:100FB4000000FA001A04E000080032001A40780029
:100FC4001B04E10005003A006100450000057800BB
:100FD4006180450080057800F6FF37001B407800EB
:100FE4009A80FB000080FB00008050000080FA0023
:040FF40000000600F3
:100EE8000000FA001A81FB00000220000010E10057
:100EF800030032006910E1000100320003003700EE
:100F08006100450000057800F6FF37000220EF0079
:100F18000620EF00D00220000010E10005003A0092
:100F280061814100610045000005780002007800F9
:100F380006003700B00220000010E10002003A006D
:100F48006100450000057800030078008102780000
:100F5800800078001A82FB008A1F78000445780018
:100F6800EEFD07004F0578000000E200080032009F
:100F7800A000200000A9B9000003200000005200D2
:100F8800800241006100450000057800F1FF37004C
:100F98000200E20002003200608012000100370007
:0C0FA800050078000080FA000000060040
:100724000000FA0090C3B3000054E10005003E004D
:1007340000C3B3000054E1000200390010C0B3004C
:10074400010037000020EF000080FB000080FA0069
:04075400000006009B
:101010000000FA000A0178008C0078006100560098
:10102000000678000200E200030032000B4978005D
:101030000420EC00F8FF37000A0078000080FA0076
:0410400000000600A6
:101BE8000A8020000B0020004F0009000B1D780020
:041BF80000000600E3
:101BFC000180200020DD280009000900B0187800C1
:101C0C00B058780061812000C0D12800390009004B
:101C1C00B0187800B0587800C188200080DE280009
:0C1C2C0005000900B01878000000060058
:1014EC003400F8003200F8003600F800801F780055
:1014FC00200020000C000900B01F78008960A900B2
:10150C00BAFE0700518120008048780011C7B30053
:10151C000104E10005003A000020EF00604488005F
:10152C0010002000704488000800370071822000F1
:10153C00C0882000908040005081200090487800A6
:10154C0011002000C088200010884000A00120005D
:10155C000C0009004F1078004F0078003600F9009D
:0C156C003200F9003400F90000400600D5
:100FF8000000FA0000000000000000009E83BF000F
:081008000080FA000000060060
:041A380000000000AA
:101A3C004C3200005F4C0000004C0000325F000094
:041A4C004A0000004C
:101A50004C3100005F440000000000000000000066
:101A60000000000000000000000000000000000076
:101A70000000000000000000000000000000000066
:101A80000000000000000000000000000000000056
:101A90000000000000000000000000000000000046
:101AA0000000000000000000000000000000000036
:101AB0000000000000000000000000000000000026
:101AC0000000000000000000000000000000000016
:101AD0000000000000000000000000000000000006
:101AE00000000000000000000000000000000000F6
:101AF00000000000000000000000000000000000E6
:101B000000000000000000000000000000000000D5
:101B100000000000000000000000000000000000C5
:041B200000000000C1
:101B240001000000000000000000000000000000B0
:101B3400010000000100000000000000000000009F
:101B44000000000001000000000000000000000090
:101B5400000000000100000001000000000000007F
:101B64000000000000000000010000000000000070
:101B7400000000000000000001000000010000005F
:101B84000000000000000000000000000100000050
:101B9400010000000000000000000000010000003F
:041BA400000000003D
:101BA800000000000000000000000000000000002D
:101BB800000000000000000000000000000000001D
:081BC800010100000100000012
:041BD0000000000011
:041BD400000000000D
:101BD8004F4B0000004C0000315F00004100000046
:020000040001F9
:5C5E0000EF8F0000FFFF0000FFFF0000FFFF0000FFFF0000FFFF0000FFFF0000FFFF0000D41F0000FFFF0000FFFF0000FFFF0000FF000000FFFF0000BF000000FFFF0000DF6B0000FFFF00000F000000FFFF000083000000FFFF00001E0000003B
:00000001FF
