:10000000BE0A040000000000000000000000000024
:1000100000000000000000000000000000000000E0
:1000200000000000000000000000000000000000D0
:1000300000000000000000000000000000000000C0
:1000400000000000000000000000000000000000B0
:1000500000000000780A000000000000000000001E
:100060000000000000000000000000000000000090
:100070000000000000000000000000000000000080
:100080000000000000000000000000000000000070
:100090000000000000000000000000000000000060
:10157C004F882000F07F240020A0B700002020001E
:10158C0032A0B700400020004420B700DA0D020062
:10159C0000000000E40D0200000000008A1F78002B
:1015AC008B1F78008C1F78006108800000002800D9
:1015BC00008060000CA1B7006A26EF007E26EF00C9
:1015CC001040200076A6B7006226EF006826EF00D8
:1015DC007C26EF006626EF007A26EF006FFE0700F0
:1015EC003CC1B3001BC0B3003AC0B300B6FF070048
:1015FC003CC0B3001620EF002AC0B300B2FF0700B6
:10160C007CFB07009960A8008960A9000A58220099
:10161C000B0020007DFE070038002000578D2000B5
:10162C000E20ED00FEFF3A001020ED00FCFF3A000A
:10163C006A872000F6FE070006FF07007AC6A8009E
:10164C007AE6A8007B06A80038002000578D200001
:10165C000E20ED00FEFF3A001020ED00FCFF3A00DA
:10166C00404080006100E100EC003A000020EF00F7
:10167C0040408800008120009040780010C4B300E6
:10168C00000CE1000E003A00A18020000020EF00C9
:10169C0080487800B18020000020EF00804878005E
:1016AC00C18020000020EF00804878001C00200042
:1016BC00AB8020004A01200093FB0700D3003700C9
:1016CC00008120009040780040C4B300000CE10081
:1016DC000E003A00A18020000020EF008048780026
:1016EC00B18020000020EF0080487800C1802000ED
:1016FC000020EF0080487800FCFF2F00AB8020001A
:10170C004A01200080FB0700C00037000081200048
:10171C0090407800A0C4B300000CE1000E003A0029
:10172C00A180200010C0B30080487800B180200058
:10173C000020EF0080487800C180200010C0B3006A
:10174C00804878001C002000AB8020004A0120005B
:10175C006DFB0700AD003700008120009040780041
:10176C00C0C4B300000CE1000E003A00A1802000C0
:10177C0010C0B30080487800B18020000020EF003A
:10178C0080487800C180200010C0B30080487800E9
:10179C00FCFF2F00AB8020004A0120005AFB070001
:1017AC009A0037000081200090407800F0C4B3000C
:1017BC00000CE10018003A001081200090407800E5
:1017CC00C0C4B300000CE10013003A002A812000D1
:1017DC00BFFD0700D0438800A28020000220EF004C
:1017EC0001497800B280200011C0B3000149780093
:1017FC00C28020000220EF00014978001C0020006C
:10180C00AB802000000578003FFB07001A03200086
:10181C00F4FB07007D003700008120009040780029
:10182C00F0C4B300000CE10018003A001081200055
:10183C009040780040C4B300000CE10013003A0063
:10184C002A812000A2FD0700D0438800A28020003E
:10185C000220EF0001497800B280200011C0B300D3
:10186C0001497800C28020000220EF000149780075
:10187C00FCFF2F00AB8020000005780022FB070046
:10188C001A032000D7FB07006000370000812000FE
:10189C0090407800B0C4B300000CE10016003A0090
:1018AC00108120009040780010C4B300000CE100BF
:1018BC0011003A002A81200085FD0700D0438800E2
:1018CC00A280200011C0B30001497800B280200032
:1018DC000220EF0001497800C28020000220EF00B6
:1018EC0001497800FCFF2F00AB8020000005780038
:1018FC0005FB070045003700008120009040780070
:10190C00E0C4B300000CE10010003A00A1802000FC
:10191C0010C0B30080487800B180200010C0B30024
:10192C0080487800C18020000020EF0080487800BB
:10193C001C002000AB8020008A1C2100F2FA07005A
:10194C001A032000A7FB070030003700008120009D
:10195C009040780090C4B300000CE10012003A00F3
:10196C00A18020000020EF0080487800B18020008A
:10197C000020EF0080487800C180200010C0B30028
:10198C00804878001C002000AB8020000A7D2000DD
:10199C00DDFA0700FCFF2F00AB8020000A7D200041
:1019AC00D9FA070019003700008120009040780018
:1019BC0030C4B300000CE10002003A0025FE070021
:1019CC0012003700008120009040780020C4B30042
:1019DC00000CE1000D003A00A180200010C0B30003
:1019EC0080487800B18020000020EF00804878000B
:1019FC00C18020000020EF0080487800FCFF2F0001
:101A0C00AB802000DA112000BFFA07004C06200042
:101A1C001620EF000A8120006FFD070010FF370031
:101A2C004F067800CF0578004F057800FFFF370090
:100FA8000000FA00011020006204200073052000F0
:100FB800824878008348780000C1A9000080FA00C0
:040FC800000006001F
:1014D4000000FA008D1F78001A20EF00CAFC0700F4
:0C14E400CF0678000080FA00000006002F
:10080C000200FA00F00F200000079800605CE10085
:10081C0065003A001A00E20001003200DF01070017
:10082C0039003700407D20000C4878005B00370011
:10083C00507D20000C48780058003700607D200067
:10084C000C48780055003700707D20000C4878006B
:10085C0052003700807D20000C4878004F00370094
:10086C00907D20000C4878004C003700A07D2000C3
:10087C000C48780049003700B07D20000C48780007
:10088C0046003700C07D20000C487800430037003C
:10089C00D07D20000C48780040003700E07D20001F
:1008AC000C4878003D003700F07D20000C487800A3
:1008BC003A003700007E20000C48780037003700E3
:1008CC00107E20000C48780034003700207E200079
:1008DC000C48780031003700307E20000C4878003E
:1008EC002E003700E07E20000C4878002B003700EB
:1008FC00F07E20000C487800280037000020EF0024
:10090C0000079800250037006054E100C5FF320055
:10091C006154E100C6FF32006254E100C7FF3200AF
:10092C006354E100C8FF32006454E100C9FF320097
:10093C006554E100CAFF32006654E100CBFF32007F
:10094C006754E100CCFF32006854E100CDFF320067
:10095C006954E100CEFF32006A54E100CFFF32004F
:10096C006B54E100D0FF32006C54E100D1FF320037
:10097C006D54E100D2FF32006E54E100D3FF32001F
:10098C006F54E100D4FF32007A54E100D5FF3200FD
:10099C007B54E100D6FF3200D8FF37001A00E2008A
:1009AC000100320093FE0700615CE100BD003A00DB
:1009BC001A00E20001003200780107006C003700D9
:1009CC00007920000A487800B30037001079200025
:1009DC000A487800B0003700207920000A487800D7
:1009EC00AD003700307920000A487800AA003700A3
:1009FC00407920000A487800A70037005079200081
:100A0C000A487800A4003700607920000A48780072
:100A1C00A1003700707920000A4878009E0037004A
:100A2C00A07920000A4878009B003700B07920009C
:100A3C000A48780098003700C07920000A487800EE
:100A4C0095003700D07920000A48780092003700D2
:100A5C00E07920000A4878008F003700F0792000F8
:100A6C000A4878008C003700007A20000A48780089
:100A7C0089003700607A20000A4878008600370029
:100A8C00707A20000A48780083003700807A2000B2
:100A9C000A48780080003700907A20000A487800D5
:100AAC007D003700407B20000A4878007A00370030
:100ABC00507B20000A48780077003700607B2000CC
:100ACC000A48780074003700707B20000A487800D0
:100ADC0071003700807B20000A4878006E003700D8
:100AEC00907B20000A4878006B003700A07B200028
:100AFC000A48780068003700C07B20000A4878005C
:100B0C0065003700D07B20000A487800620037006F
:100B1C00E07B20000A4878005F003700F07B200063
:100B2C000A4878005C003700207C20000A487800D6
:100B3C0059003700307C20000A48780056003700F6
:100B4C00807C20000A48780053003700907C2000FD
:100B5C000A48780050003700A07C20000A48780032
:100B6C004D0037000020EF00000798004A003700C6
:100B7C006064E10092FF32006164E10093FF320097
:100B8C006264E10094FF32006364E10095FF32007F
:100B9C006464E10096FF32006564E10097FF320067
:100BAC006664E10098FF32006764E10099FF32004F
:100BBC006864E1009AFF32006964E1009BFF320037
:100BCC006A64E1009CFF32006B64E1009DFF32001F
:100BDC006C64E1009EFF32006D64E1009FFF320007
:100BEC006E64E100A0FF32006F64E100A1FF3200EF
:100BFC007064E100A2FF32007164E100A3FF3200D7
:100C0C007264E100A4FF32007364E100A5FF3200BE
:100C1C007464E100A6FF32007564E100A7FF3200A6
:100C2C007664E100A8FF32007764E100A9FF32008E
:100C3C007864E100AAFF32007964E100ABFF320076
:100C4C007A64E100ACFF32007B64E100ADFF32005E
:100C5C007C64E100AEFF32007D64E100AFFF320046
:100C6C007E64E100B0FF32007F64E100B1FF32002E
:100C7C0000C2B3000064E100B1FF320010C2B30047
:100C8C000064E100B1FF320020C2B3000064E10057
:100C9C00B1FF3200B3FF37001A00E200010032004E
:100CAC00D4FD07005D0037001600AE007606A900E3
:100CBC001600AF007606A8007D0037001600AE00C7
:100CCC007626A9001600AF007626A800780037001B
:100CDC001600AE007646A9001600AF007646A800B6
:100CEC00730037001600AE007666A9001600AF0040
:100CFC007666A8006E0037001600AE007686A90056
:100D0C001600AF007686A800690037001600AE000A
:100D1C0076A6A9001600AF0076A6A80064003700DE
:100D2C001600AE0076C6A9001600AF0076C6A80065
:100D3C005F0037001600AE0076E6A9001600AF0083
:100D4C0076E6A8005A0037001600AE007706A90018
:100D5C001600AF007706A800550037001600AE004D
:100D6C007726A9001600AF007726A80050003700A0
:100D7C001600AE007746A9001600AF007746A80013
:100D8C004B0037001600AE007766A9001600AF00C6
:100D9C007766A800460037001600AE007786A900DB
:100DAC001600AF007786A800410037001600AE0091
:100DBC0077A6A9001600AF0077A6A8003C00370064
:100DCC001600AE0077C6A9001600AF0077C6A800C3
:100DDC00370037001600AE0077E6A9001600AF000A
:100DEC0077E6A800320037001600AE006206A900B4
:100DFC001600AF006206A8002D0037001600AE00EA
:100E0C006226A9001600AF006226A8002800370051
:100E1C000020EF0000079800250037006054E10027
:100E2C00A1FF32006154E100A4FF32006254E100E2
:100E3C00A7FF32006354E100AAFF32006454E100C2
:100E4C00ADFF32006554E100B0FF32006654E100A2
:100E5C00B3FF32006754E100B6FF32006854E10082
:100E6C00B9FF32006954E100BCFF32006A54E10062
:100E7C00BFFF32006B54E100C2FF32006C54E10042
:100E8C00C5FF32006D54E100C8FF32006E54E10022
:100E9C00CBFF32006F54E100CEFF32007A54E100F8
:100EAC00D1FF32007B54E100D4FF3200D8FF370071
:0C0EBC000E0090000080FA00000006000C
:100400000000FA00011020006204200073052000A3
:10041000824878008348780000C1A8000080FA0074
:0404200000000600D2
:101018000800FA00803F200000448800607E20001D
:1010280010448800F0FF2F00E0438800F0FF2F00F5
:10103800F04388009823EF00000028009AA3B70027
:101048009863A9009EFF07000001BE00803E2000B3
:101058000100200024FD07000001BE009BFF0700DF
:101068004100DE0064004000800078006000470016
:101078000A88BE008100E900030035001018D0007E
:101088001090D200FBFF3700829FBE008A9FBE00EF
:101098000200BE000E0190009E0190000002EB00CD
:1010A800DEFC07004F05BE004F01BE002007980078
:1010B800310798008A9FBE000200BE000E01900012
:1010C8009E0190000002EB009EFD07004F05BE0048
:1010D8008001780001027800600047005001D100CB
:1010E800C080D300640047003008E1002090E10090
:1010F8000700310061804100E0004A00800278006A
:1011080001037800050178008601780002003700A5
:1011180003017800840178000280710033003A00EE
:1011280067FF07000001BE00803E2000010020008C
:10113800EDFC07000001BE0064FF07004100DE006F
:1011480000A0EC0080007800600047000A88BE001C
:101158008100E900030035001018D0001090D2007B
:10116800FBFF3700829FBE000200BE000E01900008
:101178009E0190000002EB00A8FC07004F01BE0092
:1011880020079800310798000200BE000E01900069
:101198009E0190000002EB006AFD070080017800C4
:1011A80001027800600047005001D100C080D300E0
:1011B800640047003008E1002090E100070031009A
:1011C80061804100E0004A00800278000103780055
:1011D80005017800860178000200370003017800D5
:1011E800840178009863A80000003700610051006E
:1011F800E0805900001D88009A23A90099E3A800FF
:101208009B43A800B1FC0700B0FC07000080FA006F
:0412180000000600CC
:0C0EC80000F421000100200000000600E2
:080ED4002000200000000600D0
:1004D40038002000578D20000E20ED00FEFF3A006A
:0C04E4001020ED00FCFF3A0000000600B4
:1004F0000000FA00020AB800500088000200B800AC
:1005000081004200032AB800810042000080FA0006
:0405100000000600E1
:100424000000FA0002000700660204000000000059
:100434000800E20002003A00100007000000060075
:10044400811F78000200E20002003D0060001000FD
:10045400E08018000600E20002003D006001110087
:10046400E0811900050007004F00E00002003B0096
:1004740060001000E0801800000006000200070081
:100484000480BE00000006006022B80006022000BE
:100494000000D0008180D2000482D2008582D20084
:1004A4000000A8000202520083825A0003003B00AD
:1004B4000202420083824A000000A1000603E90010
:1004C400F3FF3A00000006000080FA000000060076
:10074C000000FA0002000700F4030400000000009F
:10075C000800E20002003A0010000700000006004A
:10076C00839F68000200E20002003D006000100060
:10077C00E08018000600E20002003D00600111005C
:10078C00E0811900050007004F00E00002003B006B
:10079C0060001000E0801800000006006022B80025
:1007AC00060220000000D0008180D2000482D2001A
:1007BC008582D2000000A8000202520083825A00F7
:1007CC0003003B000202420083824A000000A100A9
:1007DC000603E900F3FF3A00000006000080FA006F
:0407EC000000060003
:10121C000000FA000220EF001A4078006004E100A0
:10122C000A0032008A1F78000085FB006DFD070064
:10123C004F05780061C04000804078000080FB00C2
:10124C000000450010407800F4FF37000080FA00E1
:04125C000000060088
:1007F0000000FA009B03AF0001003700FDFF370047
:0C080000EA1C88000080FA0000000600DE
:101260008A1F78008B1F78008C1F78007AC6A80030
:101270007AE6A9007B06A90078A6AE000100370037
:1012800034003700408020001000FB00C300DD0068
:10129000A0D82800010140000020200032A0B700A3
:1012A000120078000000AE007BA6A9000000AF008D
:1012B0007BA6A800E20041000020200032A0B70079
:1012C000110078000000AE007B86A9000000AF008E
:1012D0007B86A800E40041000020200032A0B70077
:1012E000110078000000AE007B66A9000000AF008E
:1012F0007B66A800E60041000020200032A0B70075
:10130000110078000000AE007B46A9000000AF008D
:101310007B46A800A75B20000E20ED00FEFF3A00F0
:10132000000000000000000011C0B3004080200059
:1013300010C8100040802000104078006004E100D8
:1013400003003D004180200070C0B3008048780059
:10135000C9FF37007BA6A9007B86A9007B66A90090
:101360007B46A900A18020000020EF008048780083
:10137000B18020000020EF0080487800C18020006C
:1013800010C0B300804878001C002000AB80200013
:10139000EA3820005FFC07007AC6A9007AE6A900B7
:1013A0007B06A80079E6AE00010037003400370064
:1013B000108020001000FB00C300DD00A0D8280032
:1013C000010140000020200032A0B7001200780088
:1013D0000000AE007BA6A9000000AF007BA6A8001D
:1013E000E20041000020200032A0B7001100780088
:1013F0000000AE007B86A9000000AF007B86A8003D
:10140000E40041000020200032A0B7001100780065
:101410000000AE007B66A9000000AF007B66A8005C
:10142000E60041000020200032A0B7001100780043
:101430000000AE007B46A9000000AF007B46A8007C
:10144000A75B20000E20ED00FEFF3A000000000028
:101450000000000011C0B3001080200010C8100070
:1014600010802000104078006004E10003003D007F
:101470001180200070C0B30080487800C9FF370099
:101480007BA6A9007B86A9007B66A9007B46A900F4
:10149000A180200010C0B30080487800B1802000F7
:1014A0000020EF0080487800C18020000020EF007D
:1014B000804878001C002000AB8020008ABB200000
:1014C00014FC07004F067800CF0578004F05780020
:0414D0000000060012
:1005140062824500144078000080FB00C200DD00C8
:10052400E1814500134078000080FB004100DD00BC
:10053400008140009B80FB00E08020000108410016
:10054400144078000000AE007AC6A9000000AF0095
:100554007AC6A800134078000000AE007AE6A9002D
:100564000000AF007AE6A8001B4078000000AE004F
:100574007B06A9000000AF007B06A8006050E100E4
:100584005C00340001802000E080200010814000E5
:10059400124078000000FB00C300DD00A0D8280052
:1005A400810040000020200032A0B7001100780034
:1005B4000000AE007BA6A9000000AF007BA6A80047
:1005C400124078000000FB00C300DD00A0D8280022
:1005D40001004000E20040000020200032A0B700EB
:1005E400110078000000AE007B86A9000000AF0077
:1005F4007B86A800124078000000FB00C300DD00E9
:10060400A0D8280001004000E400400000202000A1
:1006140032A0B700110078000000AE007B66A9008C
:100624000000AF007B66A800124078000000FB00C9
:10063400C300DD00A0D8280001004000E60040000F
:100644000020200032A0B700110078000000AE00A6
:100654007B46A9000000AF007B46A800610055005E
:10066400000578001200FB000C00400000497800EF
:1006740001802000E08020001080400010407800BD
:100684006804E100070035006160E10005003A00FC
:1006940001802000E0802000908040000020EF00D6
:1006A4008048780001802000E08020001080400015
:1006B400104078006004E10008003D00F0FF2F00C6
:1006C4000060E10005003A0001802000E080200085
:1006D4009080400070C0B30080487800A75B200081
:1006E4000E20ED00FEFF3A000000000000000000B4
:1006F400A2FF37007BA6A9007B86A9007B66A90020
:100704007B46A9007AC6A8007AE6A8007B06A80062
:0407140000000600DB
:100EDC000000FA001A81FB00000220000010E10063
:100EEC00030032006910E1000100320003003700FA
:100EFC006100450000057800F6FF37000220EF0086
:100F0C000620EF00D00220000010E10005003A009E
:100F1C006181410061004500000578000200780005
:100F2C0006003700B00220000010E10002003A0079
:100F3C00610045000005780003007800810278000C
:100F4C00800078001A82FB008A1F78000445780024
:100F5C00EEFD07004F0578000000E20008003200AB
:100F6C00A000200000A9B9000003200000005200DE
:100F7C00800241006100450000057800F1FF370058
:100F8C000200E20002003200608012000100370013
:0C0F9C00050078000080FA00000006004C
:100718000000FA0090C3B3000054E10005003E0059
:1007280000C3B3000054E1000200390010C0B30058
:10073800010037000020EF000080FB000080FA0075
:0407480000000600A7
:100FE4000000FA000A0178008C00780061005600C5
:100FF400000678000200E200030032000B4978008A
:101004000420EC00F8FF37000A0078000080FA00A2
:0410140000000600D2
:101BB4000A8020000B002000410009000B1D780062
:041BC4000000060017
:101BC80001802000A0DC280005000900B01878007A
:101BD800B0587800E1802000E0D1280034000900E6
:101BE800B0187800B0587800A187200080DD280060
:0C1BF80000000900B01878000000060092
:1014F0003400F8003200F8003600F800801F780051
:10150000200020000C000900B01F78008960A900AD
:10151000AEFE0700D18020008048780011C7B300DC
:101520000104E10005003A000020EF00A04388001C
:101530001000200040408800080037000181200092
:101540004087200090804000D080200090487800A4
:10155000110020004087200010884000A0012000DA
:101560000C0009004F1078004F0078003600F90099
:0C1570003200F9003400F90000400600D1
:100FCC000000FA0000000000000000009E83BF003B
:080FDC000080FA00000006008D
:041A3C0000000000A6
:101A40000000000000000000000000000000000096
:101A50000000000000000000000000000000000086
:101A60000000000000000000000000000000000076
:101A70000000000000000000000000000000000066
:101A80000000000000000000000000000000000056
:101A90000000000000000000000000000000000046
:101AA0000000000000000000000000000000000036
:101AB0000000000000000000000000000000000026
:101AC0000000000000000000000000000000000016
:101AD0000000000000000000000000000000000006
:101AE00000000000000000000000000000000000F6
:101AF00000000000000000000000000000000000E6
:081B00000000000000000000DD
:041B080000000000D9
:081B0C004F4B00000000000037
:101B140001000000000000000000000000000000C0
:101B240001000000010000000000000000000000AF
:101B340000000000010000000000000000000000A0
:101B4400000000000100000001000000000000008F
:101B54000000000000000000010000000000000080
:101B6400000000000000000001000000010000006F
:101B74000000000000000000000000000100000060
:101B8400010000000000000000000000010000004F
:101B94000000000000000000000000000000000041
:041BA400000000003D
:081BA800010100000100000032
:041BB0000000000031
:020000040001F9
:5C5E0000EF8F0000FFFF0000FFFF0000FFFF0000FFFF0000FFFF0000FFFF0000FFFF0000D41F0000FFFF0000FFFF0000FFFF0000FF000000FFFF0000BF000000FFFF0000DF6B0000FFFF00000F000000FFFF000083000000FFFF00001E0000003B
:00000001FF
